:100000000C9446000C9465000C9465000C946500FB
:100010000C9465000C9465000C9465000C946500CC
:100020000C9465000C9465000C9465000C946500BC
:100030000C9465000C94B4000C9465000C9465005D
:100040000C9465000C9465000C9465000C9465009C
:100050000C9465000C9465000C9465000C9465008C
:100060000C9465000C9465000C9465000C9465007C
:100070000C9465000C9465000C9465000C9465006C
:100080000C9465000C9465000C94650011241FBE4F
:10009000CFEFD0E4DEBFCDBF11E0A0E0B1E0ECE2F5
:1000A000F4E000E00BBF02C007900D92A231B1074F
:1000B000D9F721E0A2E1B1E001C01D92AE32B20752
:1000C000E1F70E94E2010C9414020C940000CF931B
:1000D000C82F8A3019F48DE00E9467008091C0001B
:1000E00085FFFCCFC093C60080E090E0CF910895DB
:1000F00060930001709301018093020190930301CA
:100100006093120170931301809314019093150171
:1001100008958BE0809381008DE790E090938900B3
:100120008093880082E080936F0010928500109287
:1001300084008091000190910101A0910201B09191
:1001400003018093120190931301A0931401B093C3
:1001500015018FB780688FBF0895109281000895B0
:1001600081E08093160108951F920F920FB60F92AF
:1001700011240BB60F922F933F934F935F936F937E
:100180007F938F939F93AF93BF93EF93FF93809150
:10019000120190911301A0911401B09115010197E2
:1001A000A109B1098093120190931301A093140146
:1001B000B0931501892B8A2B8B2B91F40E94B000F0
:1001C0008091000190910101A0910201B091030181
:1001D0008093120190931301A0931401B093150121
:1001E000FF91EF91BF91AF919F918F917F916F910F
:1001F0005F914F913F912F910F900BBE0F900FBECB
:100200000F901F9018958091250190912601892BC0
:1002100029F41092200110921F01089580911F016E
:100220009091200101969093200180931F010A97DD
:1002300024F0109226011092250108958091290141
:1002400090912A01892B49F580B190E08095909595
:10025000887F9927892B61F088EF80932301109282
:100260001E0110921D0110922A0110922901089579
:1002700080911D0190911E01019690931E01809323
:100280001D010B972CF410922A0110922901089558
:1002900085B1816080932301089510922A01109204
:1002A0002901089580912C0190912D01892B79F5D8
:1002B00080911B0190911C01019690931C018093E9
:1002C0001B0180911D0190911E010B97E4F480B1F8
:1002D00090E080959095887F992720911901309121
:1002E0001A012817390754F480B190E08095909551
:1002F000887F992790931A018093190110922D01FC
:1003000010922C01089510921C0110921B01089567
:100310008091270190912801892B09F03FC080919D
:10032000170190911801019690931801809317017D
:100330008130910549F420B12095277020932B013D
:1003400010922801109227018230910549F420B1C2
:1003500020952770209324011092280110922701E4
:10036000039704F120912B0130E08091240190E06B
:10037000A901481B590B4430510531F480912301E8
:100380008460809323010895821B930B049751F49A
:1003900080912301846080932301089510922801A5
:1003A0001092270108958091210190912201892BBB
:1003B00021F48091230185B90895109222011092B1
:1003C0002101089511B88FEF82B984B915B864E698
:1003D00070E080E090E00E9478000E948900109216
:1003E00026011092250110922A01109229011092E3
:1003F0002D0110922C0110922801109227011092C9
:100400002201109221010E9403010E941E010E94FC
:1004100052010E9488010E94D30180911601882315
:0C042000E1F310921601EFCFF894FFCF2B
:10042C000100000000000002000000006700000056
:02043C000000BE
:00000001FF
